{
  "contractName": "Dority",
  "abi": [
    {
      "anonymous": false,
      "inputs": [
        {
          "indexed": true,
          "internalType": "uint256",
          "name": "id",
          "type": "uint256"
        },
        {
          "indexed": false,
          "internalType": "address",
          "name": "donor",
          "type": "address"
        },
        {
          "indexed": false,
          "internalType": "uint256",
          "name": "amount",
          "type": "uint256"
        },
        {
          "indexed": false,
          "internalType": "uint256",
          "name": "timestamp",
          "type": "uint256"
        }
      ],
      "name": "Donate",
      "type": "event"
    },
    {
      "anonymous": false,
      "inputs": [
        {
          "indexed": true,
          "internalType": "uint256",
          "name": "id",
          "type": "uint256"
        },
        {
          "indexed": false,
          "internalType": "address",
          "name": "owner",
          "type": "address"
        }
      ],
      "name": "OrganisationAdded",
      "type": "event"
    },
    {
      "inputs": [
        {
          "internalType": "uint256",
          "name": "",
          "type": "uint256"
        },
        {
          "internalType": "uint256",
          "name": "",
          "type": "uint256"
        }
      ],
      "name": "donors",
      "outputs": [
        {
          "internalType": "address",
          "name": "donor",
          "type": "address"
        },
        {
          "internalType": "uint256",
          "name": "amount",
          "type": "uint256"
        },
        {
          "internalType": "uint256",
          "name": "timestamp",
          "type": "uint256"
        }
      ],
      "stateMutability": "view",
      "type": "function",
      "constant": true
    },
    {
      "inputs": [
        {
          "internalType": "uint256",
          "name": "",
          "type": "uint256"
        }
      ],
      "name": "organisations",
      "outputs": [
        {
          "internalType": "uint256",
          "name": "id",
          "type": "uint256"
        },
        {
          "internalType": "address",
          "name": "owner",
          "type": "address"
        },
        {
          "internalType": "string",
          "name": "ipfsHash",
          "type": "string"
        },
        {
          "internalType": "uint256",
          "name": "raised",
          "type": "uint256"
        },
        {
          "internalType": "uint256",
          "name": "needed",
          "type": "uint256"
        },
        {
          "internalType": "bool",
          "name": "isFullfilled",
          "type": "bool"
        },
        {
          "internalType": "uint256",
          "name": "timestamp",
          "type": "uint256"
        }
      ],
      "stateMutability": "view",
      "type": "function",
      "constant": true
    },
    {
      "inputs": [],
      "name": "totalOrganisations",
      "outputs": [
        {
          "internalType": "uint256",
          "name": "",
          "type": "uint256"
        }
      ],
      "stateMutability": "view",
      "type": "function",
      "constant": true
    },
    {
      "inputs": [
        {
          "internalType": "string",
          "name": "_hash",
          "type": "string"
        },
        {
          "internalType": "uint256",
          "name": "_needed",
          "type": "uint256"
        }
      ],
      "name": "createOrganisation",
      "outputs": [],
      "stateMutability": "nonpayable",
      "type": "function"
    },
    {
      "inputs": [
        {
          "internalType": "uint256",
          "name": "_id",
          "type": "uint256"
        },
        {
          "internalType": "string",
          "name": "_hash",
          "type": "string"
        },
        {
          "internalType": "uint256",
          "name": "_needed",
          "type": "uint256"
        },
        {
          "internalType": "bool",
          "name": "_isFullfilled",
          "type": "bool"
        }
      ],
      "name": "updateOrganisation",
      "outputs": [],
      "stateMutability": "nonpayable",
      "type": "function"
    },
    {
      "inputs": [
        {
          "internalType": "uint256",
          "name": "_id",
          "type": "uint256"
        }
      ],
      "name": "donate",
      "outputs": [],
      "stateMutability": "payable",
      "type": "function",
      "payable": true
    },
    {
      "inputs": [
        {
          "internalType": "uint256",
          "name": "_id",
          "type": "uint256"
        }
      ],
      "name": "getDonors",
      "outputs": [
        {
          "components": [
            {
              "internalType": "address",
              "name": "donor",
              "type": "address"
            },
            {
              "internalType": "uint256",
              "name": "amount",
              "type": "uint256"
            },
            {
              "internalType": "uint256",
              "name": "timestamp",
              "type": "uint256"
            }
          ],
          "internalType": "struct Dority.Donors[]",
          "name": "",
          "type": "tuple[]"
        }
      ],
      "stateMutability": "view",
      "type": "function",
      "constant": true
    }
  ],
  "bytecode": "0x60806040526000805534801561001457600080fd5b50611373806100246000396000f3fe6080604052600436106100705760003560e01c8063c17509861161004e578063c175098614610134578063c5802e3a1461015f578063f0004bd214610188578063f14faf6f146101b157610070565b8063246f8c441461007557806329516511146100b857806383bd62dd146100f5575b600080fd5b34801561008157600080fd5b5061009c60048036038101906100979190610b03565b6101cd565b6040516100af9796959493929190610c34565b60405180910390f35b3480156100c457600080fd5b506100df60048036038101906100da9190610b03565b6102c4565b6040516100ec9190610db9565b60405180910390f35b34801561010157600080fd5b5061011c60048036038101906101179190610ddb565b6103f4565b60405161012b93929190610e1b565b60405180910390f35b34801561014057600080fd5b5061014961045b565b6040516101569190610e52565b60405180910390f35b34801561016b57600080fd5b5061018660048036038101906101819190610fa2565b610461565b005b34801561019457600080fd5b506101af60048036038101906101aa919061102a565b6105c2565b005b6101cb60048036038101906101c69190610b03565b610734565b005b60016020528060005260406000206000915090508060000154908060010160009054906101000a900473ffffffffffffffffffffffffffffffffffffffff169080600201805461021c906110dc565b80601f0160208091040260200160405190810160405280929190818152602001828054610248906110dc565b80156102955780601f1061026a57610100808354040283529160200191610295565b820191906000526020600020905b81548152906001019060200180831161027857829003601f168201915b5050505050908060030154908060040154908060050160009054906101000a900460ff16908060060154905087565b606081600081141580156102da57506000548111155b610319576040517f08c379a000000000000000000000000000000000000000000000000000000000815260040161031090611159565b60405180910390fd5b60026000848152602001908152602001600020805480602002602001604051908101604052809291908181526020016000905b828210156103e857838290600052602060002090600302016040518060600160405290816000820160009054906101000a900473ffffffffffffffffffffffffffffffffffffffff1673ffffffffffffffffffffffffffffffffffffffff1673ffffffffffffffffffffffffffffffffffffffff168152602001600182015481526020016002820154815250508152602001906001019061034c565b50505050915050919050565b6002602052816000526040600020818154811061041057600080fd5b9060005260206000209060030201600091509150508060000160009054906101000a900473ffffffffffffffffffffffffffffffffffffffff16908060010154908060020154905083565b60005481565b61046c600054610a09565b6000819055506040518060e0016040528060005481526020013373ffffffffffffffffffffffffffffffffffffffff168152602001838152602001600081526020018281526020016000151581526020014281525060016000805481526020019081526020016000206000820151816000015560208201518160010160006101000a81548173ffffffffffffffffffffffffffffffffffffffff021916908373ffffffffffffffffffffffffffffffffffffffff1602179055506040820151816002019080519060200190610542929190610a16565b50606082015181600301556080820151816004015560a08201518160050160006101000a81548160ff02191690831515021790555060c082015181600601559050506000547f36f127fd5ad05cf886c6eb6e7f9926c5e065a5af570106304be392c83b75dbff336040516105b69190611179565b60405180910390a25050565b83600081141580156105d657506000548111155b610615576040517f08c379a000000000000000000000000000000000000000000000000000000000815260040161060c90611159565b60405180910390fd5b6001600086815260200190815260200160002060010160009054906101000a900473ffffffffffffffffffffffffffffffffffffffff1673ffffffffffffffffffffffffffffffffffffffff163373ffffffffffffffffffffffffffffffffffffffff16146106b9576040517f08c379a00000000000000000000000000000000000000000000000000000000081526004016106b090611206565b60405180910390fd5b836001600087815260200190815260200160002060020190805190602001906106e3929190610a16565b50826001600087815260200190815260200160002060040181905550816001600087815260200190815260200160002060050160006101000a81548160ff0219169083151502179055505050505050565b806000811415801561074857506000548111155b610787576040517f08c379a000000000000000000000000000000000000000000000000000000000815260040161077e90611159565b60405180910390fd5b816001600082815260200190815260200160002060050160009054906101000a900460ff16156107ec576040517f08c379a00000000000000000000000000000000000000000000000000000000081526004016107e390611298565b60405180910390fd5b60006001600085815260200190815260200160002060010160009054906101000a900473ffffffffffffffffffffffffffffffffffffffff1690508073ffffffffffffffffffffffffffffffffffffffff166108fc349081150290604051600060405180830381858888f1935050505015801561086d573d6000803e3d6000fd5b503460016000868152602001908152602001600020600301600082825461089491906112e7565b925050819055506002600085815260200190815260200160002060405180606001604052803373ffffffffffffffffffffffffffffffffffffffff16815260200134815260200142815250908060018154018082558091505060019003906000526020600020906003020160009091909190915060008201518160000160006101000a81548173ffffffffffffffffffffffffffffffffffffffff021916908373ffffffffffffffffffffffffffffffffffffffff16021790555060208201518160010155604082015181600201555050837f5b578d01c6d050393499c6be922240a8c6b29718e1312285d344f23a5b1ceba333344260405161099993929190610e1b565b60405180910390a26001600085815260200190815260200160002060040154600160008681526020019081526020016000206003015410610a0357600180600086815260200190815260200160002060050160006101000a81548160ff0219169083151502179055505b50505050565b6000600182019050919050565b828054610a22906110dc565b90600052602060002090601f016020900481019282610a445760008555610a8b565b82601f10610a5d57805160ff1916838001178555610a8b565b82800160010185558215610a8b579182015b82811115610a8a578251825591602001919060010190610a6f565b5b509050610a989190610a9c565b5090565b5b80821115610ab5576000816000905550600101610a9d565b5090565b6000604051905090565b600080fd5b600080fd5b6000819050919050565b610ae081610acd565b8114610aeb57600080fd5b50565b600081359050610afd81610ad7565b92915050565b600060208284031215610b1957610b18610ac3565b5b6000610b2784828501610aee565b91505092915050565b610b3981610acd565b82525050565b600073ffffffffffffffffffffffffffffffffffffffff82169050919050565b6000610b6a82610b3f565b9050919050565b610b7a81610b5f565b82525050565b600081519050919050565b600082825260208201905092915050565b60005b83811015610bba578082015181840152602081019050610b9f565b83811115610bc9576000848401525b50505050565b6000601f19601f8301169050919050565b6000610beb82610b80565b610bf58185610b8b565b9350610c05818560208601610b9c565b610c0e81610bcf565b840191505092915050565b60008115159050919050565b610c2e81610c19565b82525050565b600060e082019050610c49600083018a610b30565b610c566020830189610b71565b8181036040830152610c688188610be0565b9050610c776060830187610b30565b610c846080830186610b30565b610c9160a0830185610c25565b610c9e60c0830184610b30565b98975050505050505050565b600081519050919050565b600082825260208201905092915050565b6000819050602082019050919050565b610cdf81610b5f565b82525050565b610cee81610acd565b82525050565b606082016000820151610d0a6000850182610cd6565b506020820151610d1d6020850182610ce5565b506040820151610d306040850182610ce5565b50505050565b6000610d428383610cf4565b60608301905092915050565b6000602082019050919050565b6000610d6682610caa565b610d708185610cb5565b9350610d7b83610cc6565b8060005b83811015610dac578151610d938882610d36565b9750610d9e83610d4e565b925050600181019050610d7f565b5085935050505092915050565b60006020820190508181036000830152610dd38184610d5b565b905092915050565b60008060408385031215610df257610df1610ac3565b5b6000610e0085828601610aee565b9250506020610e1185828601610aee565b9150509250929050565b6000606082019050610e306000830186610b71565b610e3d6020830185610b30565b610e4a6040830184610b30565b949350505050565b6000602082019050610e676000830184610b30565b92915050565b600080fd5b600080fd5b7f4e487b7100000000000000000000000000000000000000000000000000000000600052604160045260246000fd5b610eaf82610bcf565b810181811067ffffffffffffffff82111715610ece57610ecd610e77565b5b80604052505050565b6000610ee1610ab9565b9050610eed8282610ea6565b919050565b600067ffffffffffffffff821115610f0d57610f0c610e77565b5b610f1682610bcf565b9050602081019050919050565b82818337600083830152505050565b6000610f45610f4084610ef2565b610ed7565b905082815260208101848484011115610f6157610f60610e72565b5b610f6c848285610f23565b509392505050565b600082601f830112610f8957610f88610e6d565b5b8135610f99848260208601610f32565b91505092915050565b60008060408385031215610fb957610fb8610ac3565b5b600083013567ffffffffffffffff811115610fd757610fd6610ac8565b5b610fe385828601610f74565b9250506020610ff485828601610aee565b9150509250929050565b61100781610c19565b811461101257600080fd5b50565b60008135905061102481610ffe565b92915050565b6000806000806080858703121561104457611043610ac3565b5b600061105287828801610aee565b945050602085013567ffffffffffffffff81111561107357611072610ac8565b5b61107f87828801610f74565b935050604061109087828801610aee565b92505060606110a187828801611015565b91505092959194509250565b7f4e487b7100000000000000000000000000000000000000000000000000000000600052602260045260246000fd5b600060028204905060018216806110f457607f821691505b602082108103611107576111066110ad565b5b50919050565b7f496e76616c696420696400000000000000000000000000000000000000000000600082015250565b6000611143600a83610b8b565b915061114e8261110d565b602082019050919050565b6000602082019050818103600083015261117281611136565b9050919050565b600060208201905061118e6000830184610b71565b92915050565b7f596f7520617265206e6f7420746865206f776e6572206f662074686973206f7260008201527f67616e69736174696f6e00000000000000000000000000000000000000000000602082015250565b60006111f0602a83610b8b565b91506111fb82611194565b604082019050919050565b6000602082019050818103600083015261121f816111e3565b9050919050565b7f4f7267616e69736174696f6e20697320616c72656164792066756c66696c6c6560008201527f6400000000000000000000000000000000000000000000000000000000000000602082015250565b6000611282602183610b8b565b915061128d82611226565b604082019050919050565b600060208201905081810360008301526112b181611275565b9050919050565b7f4e487b7100000000000000000000000000000000000000000000000000000000600052601160045260246000fd5b60006112f282610acd565b91506112fd83610acd565b9250827fffffffffffffffffffffffffffffffffffffffffffffffffffffffffffffffff03821115611332576113316112b8565b5b82820190509291505056fea26469706673582212204924512a833c787a12f29525c3b0595663b8f333f9f84c503118aa38c2d5dd8464736f6c634300080e0033",
  "immutableReferences": {},
  "source": "// SPDX-License-Identifier: MIT\npragma solidity ^0.8.0;\n\ncontract Dority {\n    struct Organisation {\n        uint256 id;\n        address owner;\n        string ipfsHash;\n        uint256 raised;\n        uint256 needed;\n        bool isFullfilled;\n        uint256 timestamp;\n    }\n\n    struct Donors {\n        address donor;\n        uint256 amount;\n        uint256 timestamp;\n    }\n\n    uint256 public totalOrganisations = 0;\n\n    // mapping of organisation id to organisation\n    mapping(uint256 => Organisation) public organisations;\n\n    // mapping of organisation id to Donors\n    mapping(uint256 => Donors[]) public donors;\n\n    // Events\n    event OrganisationAdded(\n        uint256 indexed id,\n        address owner\n    );\n\n    event Donate(\n        uint256 indexed id,\n        address donor,\n        uint256 amount,\n        uint256 timestamp\n    );\n\n     // Modifier to check for validity of the id\n    modifier isValidId(uint256 _id) {\n        require(_id != 0 && _id <= totalOrganisations, \"Invalid id\");\n        _;\n    }\n\n    // Modifier to check whether the organisation is fullfilled\n    modifier isOrganisationFulfilled(uint256 _id) {\n        require(!organisations[_id].isFullfilled, \"Organisation is already fulfilled\");\n        _;\n    }\n\n    function createOrganisation(\n        string memory _hash,\n        uint256 _needed\n    ) public{\n        totalOrganisations = unsafe_inc(totalOrganisations);\n        organisations[totalOrganisations] = Organisation({\n            id: totalOrganisations,\n            owner: msg.sender,\n            ipfsHash: _hash,\n            raised: 0,\n            needed: _needed,\n            isFullfilled: false,\n            timestamp: block.timestamp\n        });\n\n        emit OrganisationAdded(totalOrganisations, msg.sender);\n    }\n\n    function updateOrganisation(\n        uint256 _id,\n        string memory _hash,\n        uint256 _needed,\n        bool _isFullfilled\n    ) public isValidId(_id) {\n        require(msg.sender == organisations[_id].owner, \"You are not the owner of this organisation\");\n\n        organisations[_id].ipfsHash = _hash;\n        organisations[_id].needed = _needed;\n        organisations[_id].isFullfilled = _isFullfilled;\n    }\n\n    function donate(uint256 _id) public payable isValidId(_id) isOrganisationFulfilled(_id) {\n        address owner = organisations[_id].owner;\n\n        payable(owner).transfer(msg.value);\n\n        organisations[_id].raised += msg.value;\n        donors[_id].push(Donors({\n            donor: msg.sender,\n            amount: msg.value,\n            timestamp: block.timestamp\n        }));\n\n        emit Donate(_id, msg.sender, msg.value, block.timestamp);\n\n        if(organisations[_id].raised >= organisations[_id].needed){\n            organisations[_id].isFullfilled = true;\n        }\n    }\n\n    function getDonors(uint256 _id) public view isValidId(_id) returns(Donors[] memory){\n        return donors[_id];\n    }\n\n    // Function for gas optimization\n    function unsafe_inc(uint256 x) private pure returns (uint256) {\n        unchecked { return x + 1; }\n    }\n}",
  "sourcePath": "/Users/rahulbansal/Desktop/Dority/contracts/Dority.sol",
  "compiler": {
    "name": "solc",
    "version": "0.8.14+commit.80d49f37.Emscripten.clang"
  },
  "schemaVersion": "3.4.6",
  "updatedAt": "2022-05-30T19:30:58.380Z",
  "networkType": "ethereum",
  "devdoc": {
    "kind": "dev",
    "methods": {},
    "version": 1
  },
  "userdoc": {
    "kind": "user",
    "methods": {},
    "version": 1
  }
}