{
  "contractName": "Dority",
  "abi": [
    {
      "anonymous": false,
      "inputs": [
        {
          "indexed": true,
          "internalType": "uint256",
          "name": "id",
          "type": "uint256"
        },
        {
          "indexed": false,
          "internalType": "address",
          "name": "donor",
          "type": "address"
        },
        {
          "indexed": false,
          "internalType": "uint256",
          "name": "amount",
          "type": "uint256"
        },
        {
          "indexed": false,
          "internalType": "uint256",
          "name": "timestamp",
          "type": "uint256"
        }
      ],
      "name": "Donate",
      "type": "event"
    },
    {
      "anonymous": false,
      "inputs": [
        {
          "indexed": true,
          "internalType": "uint256",
          "name": "id",
          "type": "uint256"
        },
        {
          "indexed": false,
          "internalType": "address",
          "name": "owner",
          "type": "address"
        }
      ],
      "name": "OrganisationAdded",
      "type": "event"
    },
    {
      "anonymous": false,
      "inputs": [
        {
          "indexed": true,
          "internalType": "uint256",
          "name": "id",
          "type": "uint256"
        },
        {
          "indexed": false,
          "internalType": "address",
          "name": "owner",
          "type": "address"
        }
      ],
      "name": "OrganisationUpdated",
      "type": "event"
    },
    {
      "inputs": [
        {
          "internalType": "uint256",
          "name": "",
          "type": "uint256"
        },
        {
          "internalType": "uint256",
          "name": "",
          "type": "uint256"
        }
      ],
      "name": "donors",
      "outputs": [
        {
          "internalType": "address",
          "name": "donor",
          "type": "address"
        },
        {
          "internalType": "uint256",
          "name": "amount",
          "type": "uint256"
        },
        {
          "internalType": "uint256",
          "name": "timestamp",
          "type": "uint256"
        }
      ],
      "stateMutability": "view",
      "type": "function",
      "constant": true
    },
    {
      "inputs": [
        {
          "internalType": "uint256",
          "name": "",
          "type": "uint256"
        }
      ],
      "name": "organisations",
      "outputs": [
        {
          "internalType": "uint256",
          "name": "id",
          "type": "uint256"
        },
        {
          "internalType": "address",
          "name": "owner",
          "type": "address"
        },
        {
          "internalType": "string",
          "name": "ipfsHash",
          "type": "string"
        },
        {
          "internalType": "uint256",
          "name": "raised",
          "type": "uint256"
        },
        {
          "internalType": "uint256",
          "name": "needed",
          "type": "uint256"
        },
        {
          "internalType": "bool",
          "name": "isFullfilled",
          "type": "bool"
        },
        {
          "internalType": "uint256",
          "name": "timestamp",
          "type": "uint256"
        }
      ],
      "stateMutability": "view",
      "type": "function",
      "constant": true
    },
    {
      "inputs": [],
      "name": "totalOrganisations",
      "outputs": [
        {
          "internalType": "uint256",
          "name": "",
          "type": "uint256"
        }
      ],
      "stateMutability": "view",
      "type": "function",
      "constant": true
    },
    {
      "inputs": [
        {
          "internalType": "string",
          "name": "_hash",
          "type": "string"
        },
        {
          "internalType": "uint256",
          "name": "_needed",
          "type": "uint256"
        }
      ],
      "name": "createOrganisation",
      "outputs": [],
      "stateMutability": "nonpayable",
      "type": "function"
    },
    {
      "inputs": [
        {
          "internalType": "uint256",
          "name": "_id",
          "type": "uint256"
        },
        {
          "internalType": "string",
          "name": "_hash",
          "type": "string"
        },
        {
          "internalType": "uint256",
          "name": "_needed",
          "type": "uint256"
        },
        {
          "internalType": "bool",
          "name": "_isFullfilled",
          "type": "bool"
        }
      ],
      "name": "updateOrganisation",
      "outputs": [],
      "stateMutability": "nonpayable",
      "type": "function"
    },
    {
      "inputs": [
        {
          "internalType": "uint256",
          "name": "_id",
          "type": "uint256"
        }
      ],
      "name": "donate",
      "outputs": [],
      "stateMutability": "payable",
      "type": "function",
      "payable": true
    },
    {
      "inputs": [
        {
          "internalType": "uint256",
          "name": "_id",
          "type": "uint256"
        }
      ],
      "name": "getDonors",
      "outputs": [
        {
          "components": [
            {
              "internalType": "address",
              "name": "donor",
              "type": "address"
            },
            {
              "internalType": "uint256",
              "name": "amount",
              "type": "uint256"
            },
            {
              "internalType": "uint256",
              "name": "timestamp",
              "type": "uint256"
            }
          ],
          "internalType": "struct Dority.Donors[]",
          "name": "",
          "type": "tuple[]"
        }
      ],
      "stateMutability": "view",
      "type": "function",
      "constant": true
    }
  ],
  "bytecode": "0x60806040526000805534801561001457600080fd5b506113ab806100246000396000f3fe6080604052600436106100705760003560e01c8063c17509861161004e578063c175098614610134578063c5802e3a1461015f578063f0004bd214610188578063f14faf6f146101b157610070565b8063246f8c441461007557806329516511146100b857806383bd62dd146100f5575b600080fd5b34801561008157600080fd5b5061009c60048036038101906100979190610b3b565b6101cd565b6040516100af9796959493929190610c6c565b60405180910390f35b3480156100c457600080fd5b506100df60048036038101906100da9190610b3b565b6102c4565b6040516100ec9190610df1565b60405180910390f35b34801561010157600080fd5b5061011c60048036038101906101179190610e13565b6103f4565b60405161012b93929190610e53565b60405180910390f35b34801561014057600080fd5b5061014961045b565b6040516101569190610e8a565b60405180910390f35b34801561016b57600080fd5b5061018660048036038101906101819190610fda565b610461565b005b34801561019457600080fd5b506101af60048036038101906101aa9190611062565b6105c2565b005b6101cb60048036038101906101c69190610b3b565b61076c565b005b60016020528060005260406000206000915090508060000154908060010160009054906101000a900473ffffffffffffffffffffffffffffffffffffffff169080600201805461021c90611114565b80601f016020809104026020016040519081016040528092919081815260200182805461024890611114565b80156102955780601f1061026a57610100808354040283529160200191610295565b820191906000526020600020905b81548152906001019060200180831161027857829003601f168201915b5050505050908060030154908060040154908060050160009054906101000a900460ff16908060060154905087565b606081600081141580156102da57506000548111155b610319576040517f08c379a000000000000000000000000000000000000000000000000000000000815260040161031090611191565b60405180910390fd5b60026000848152602001908152602001600020805480602002602001604051908101604052809291908181526020016000905b828210156103e857838290600052602060002090600302016040518060600160405290816000820160009054906101000a900473ffffffffffffffffffffffffffffffffffffffff1673ffffffffffffffffffffffffffffffffffffffff1673ffffffffffffffffffffffffffffffffffffffff168152602001600182015481526020016002820154815250508152602001906001019061034c565b50505050915050919050565b6002602052816000526040600020818154811061041057600080fd5b9060005260206000209060030201600091509150508060000160009054906101000a900473ffffffffffffffffffffffffffffffffffffffff16908060010154908060020154905083565b60005481565b61046c600054610a41565b6000819055506040518060e0016040528060005481526020013373ffffffffffffffffffffffffffffffffffffffff168152602001838152602001600081526020018281526020016000151581526020014281525060016000805481526020019081526020016000206000820151816000015560208201518160010160006101000a81548173ffffffffffffffffffffffffffffffffffffffff021916908373ffffffffffffffffffffffffffffffffffffffff1602179055506040820151816002019080519060200190610542929190610a4e565b50606082015181600301556080820151816004015560a08201518160050160006101000a81548160ff02191690831515021790555060c082015181600601559050506000547f36f127fd5ad05cf886c6eb6e7f9926c5e065a5af570106304be392c83b75dbff336040516105b691906111b1565b60405180910390a25050565b83600081141580156105d657506000548111155b610615576040517f08c379a000000000000000000000000000000000000000000000000000000000815260040161060c90611191565b60405180910390fd5b6001600086815260200190815260200160002060010160009054906101000a900473ffffffffffffffffffffffffffffffffffffffff1673ffffffffffffffffffffffffffffffffffffffff163373ffffffffffffffffffffffffffffffffffffffff16146106b9576040517f08c379a00000000000000000000000000000000000000000000000000000000081526004016106b09061123e565b60405180910390fd5b836001600087815260200190815260200160002060020190805190602001906106e3929190610a4e565b50826001600087815260200190815260200160002060040181905550816001600087815260200190815260200160002060050160006101000a81548160ff021916908315150217905550847ffd59aedd84416787049d29e26a279e603a949f971377b619b2c73f02981709253360405161075d91906111b1565b60405180910390a25050505050565b806000811415801561078057506000548111155b6107bf576040517f08c379a00000000000000000000000000000000000000000000000000000000081526004016107b690611191565b60405180910390fd5b816001600082815260200190815260200160002060050160009054906101000a900460ff1615610824576040517f08c379a000000000000000000000000000000000000000000000000000000000815260040161081b906112d0565b60405180910390fd5b60006001600085815260200190815260200160002060010160009054906101000a900473ffffffffffffffffffffffffffffffffffffffff1690508073ffffffffffffffffffffffffffffffffffffffff166108fc349081150290604051600060405180830381858888f193505050501580156108a5573d6000803e3d6000fd5b50346001600086815260200190815260200160002060030160008282546108cc919061131f565b925050819055506002600085815260200190815260200160002060405180606001604052803373ffffffffffffffffffffffffffffffffffffffff16815260200134815260200142815250908060018154018082558091505060019003906000526020600020906003020160009091909190915060008201518160000160006101000a81548173ffffffffffffffffffffffffffffffffffffffff021916908373ffffffffffffffffffffffffffffffffffffffff16021790555060208201518160010155604082015181600201555050837f5b578d01c6d050393499c6be922240a8c6b29718e1312285d344f23a5b1ceba33334426040516109d193929190610e53565b60405180910390a26001600085815260200190815260200160002060040154600160008681526020019081526020016000206003015410610a3b57600180600086815260200190815260200160002060050160006101000a81548160ff0219169083151502179055505b50505050565b6000600182019050919050565b828054610a5a90611114565b90600052602060002090601f016020900481019282610a7c5760008555610ac3565b82601f10610a9557805160ff1916838001178555610ac3565b82800160010185558215610ac3579182015b82811115610ac2578251825591602001919060010190610aa7565b5b509050610ad09190610ad4565b5090565b5b80821115610aed576000816000905550600101610ad5565b5090565b6000604051905090565b600080fd5b600080fd5b6000819050919050565b610b1881610b05565b8114610b2357600080fd5b50565b600081359050610b3581610b0f565b92915050565b600060208284031215610b5157610b50610afb565b5b6000610b5f84828501610b26565b91505092915050565b610b7181610b05565b82525050565b600073ffffffffffffffffffffffffffffffffffffffff82169050919050565b6000610ba282610b77565b9050919050565b610bb281610b97565b82525050565b600081519050919050565b600082825260208201905092915050565b60005b83811015610bf2578082015181840152602081019050610bd7565b83811115610c01576000848401525b50505050565b6000601f19601f8301169050919050565b6000610c2382610bb8565b610c2d8185610bc3565b9350610c3d818560208601610bd4565b610c4681610c07565b840191505092915050565b60008115159050919050565b610c6681610c51565b82525050565b600060e082019050610c81600083018a610b68565b610c8e6020830189610ba9565b8181036040830152610ca08188610c18565b9050610caf6060830187610b68565b610cbc6080830186610b68565b610cc960a0830185610c5d565b610cd660c0830184610b68565b98975050505050505050565b600081519050919050565b600082825260208201905092915050565b6000819050602082019050919050565b610d1781610b97565b82525050565b610d2681610b05565b82525050565b606082016000820151610d426000850182610d0e565b506020820151610d556020850182610d1d565b506040820151610d686040850182610d1d565b50505050565b6000610d7a8383610d2c565b60608301905092915050565b6000602082019050919050565b6000610d9e82610ce2565b610da88185610ced565b9350610db383610cfe565b8060005b83811015610de4578151610dcb8882610d6e565b9750610dd683610d86565b925050600181019050610db7565b5085935050505092915050565b60006020820190508181036000830152610e0b8184610d93565b905092915050565b60008060408385031215610e2a57610e29610afb565b5b6000610e3885828601610b26565b9250506020610e4985828601610b26565b9150509250929050565b6000606082019050610e686000830186610ba9565b610e756020830185610b68565b610e826040830184610b68565b949350505050565b6000602082019050610e9f6000830184610b68565b92915050565b600080fd5b600080fd5b7f4e487b7100000000000000000000000000000000000000000000000000000000600052604160045260246000fd5b610ee782610c07565b810181811067ffffffffffffffff82111715610f0657610f05610eaf565b5b80604052505050565b6000610f19610af1565b9050610f258282610ede565b919050565b600067ffffffffffffffff821115610f4557610f44610eaf565b5b610f4e82610c07565b9050602081019050919050565b82818337600083830152505050565b6000610f7d610f7884610f2a565b610f0f565b905082815260208101848484011115610f9957610f98610eaa565b5b610fa4848285610f5b565b509392505050565b600082601f830112610fc157610fc0610ea5565b5b8135610fd1848260208601610f6a565b91505092915050565b60008060408385031215610ff157610ff0610afb565b5b600083013567ffffffffffffffff81111561100f5761100e610b00565b5b61101b85828601610fac565b925050602061102c85828601610b26565b9150509250929050565b61103f81610c51565b811461104a57600080fd5b50565b60008135905061105c81611036565b92915050565b6000806000806080858703121561107c5761107b610afb565b5b600061108a87828801610b26565b945050602085013567ffffffffffffffff8111156110ab576110aa610b00565b5b6110b787828801610fac565b93505060406110c887828801610b26565b92505060606110d98782880161104d565b91505092959194509250565b7f4e487b7100000000000000000000000000000000000000000000000000000000600052602260045260246000fd5b6000600282049050600182168061112c57607f821691505b60208210810361113f5761113e6110e5565b5b50919050565b7f496e76616c696420696400000000000000000000000000000000000000000000600082015250565b600061117b600a83610bc3565b915061118682611145565b602082019050919050565b600060208201905081810360008301526111aa8161116e565b9050919050565b60006020820190506111c66000830184610ba9565b92915050565b7f596f7520617265206e6f7420746865206f776e6572206f662074686973206f7260008201527f67616e69736174696f6e00000000000000000000000000000000000000000000602082015250565b6000611228602a83610bc3565b9150611233826111cc565b604082019050919050565b600060208201905081810360008301526112578161121b565b9050919050565b7f4f7267616e69736174696f6e20697320616c72656164792066756c66696c6c6560008201527f6400000000000000000000000000000000000000000000000000000000000000602082015250565b60006112ba602183610bc3565b91506112c58261125e565b604082019050919050565b600060208201905081810360008301526112e9816112ad565b9050919050565b7f4e487b7100000000000000000000000000000000000000000000000000000000600052601160045260246000fd5b600061132a82610b05565b915061133583610b05565b9250827fffffffffffffffffffffffffffffffffffffffffffffffffffffffffffffffff0382111561136a576113696112f0565b5b82820190509291505056fea2646970667358221220951361000a3994e60bd8b43b0baf345992ca7f3ab7918ee61de76203a329862664736f6c634300080e0033",
  "immutableReferences": {},
  "source": "// SPDX-License-Identifier: MIT\npragma solidity ^0.8.0;\n\ncontract Dority {\n    struct Organisation {\n        uint256 id;\n        address owner;\n        string ipfsHash;\n        uint256 raised;\n        uint256 needed;\n        bool isFullfilled;\n        uint256 timestamp;\n    }\n\n    struct Donors {\n        address donor;\n        uint256 amount;\n        uint256 timestamp;\n    }\n\n    uint256 public totalOrganisations = 0;\n\n    // mapping of organisation id to organisation\n    mapping(uint256 => Organisation) public organisations;\n\n    // mapping of organisation id to Donors\n    mapping(uint256 => Donors[]) public donors;\n\n    // Events\n    event OrganisationAdded(\n        uint256 indexed id,\n        address owner\n    );\n\n    event OrganisationUpdated(\n        uint256 indexed id,\n        address owner\n    );\n\n    event Donate(\n        uint256 indexed id,\n        address donor,\n        uint256 amount,\n        uint256 timestamp\n    );\n\n     // Modifier to check for validity of the id\n    modifier isValidId(uint256 _id) {\n        require(_id != 0 && _id <= totalOrganisations, \"Invalid id\");\n        _;\n    }\n\n    // Modifier to check whether the organisation is fullfilled\n    modifier isOrganisationFulfilled(uint256 _id) {\n        require(!organisations[_id].isFullfilled, \"Organisation is already fulfilled\");\n        _;\n    }\n\n    function createOrganisation(\n        string memory _hash,\n        uint256 _needed\n    ) public{\n        totalOrganisations = unsafe_inc(totalOrganisations);\n        organisations[totalOrganisations] = Organisation({\n            id: totalOrganisations,\n            owner: msg.sender,\n            ipfsHash: _hash,\n            raised: 0,\n            needed: _needed,\n            isFullfilled: false,\n            timestamp: block.timestamp\n        });\n\n        emit OrganisationAdded(totalOrganisations, msg.sender);\n    }\n\n    function updateOrganisation(\n        uint256 _id,\n        string memory _hash,\n        uint256 _needed,\n        bool _isFullfilled\n    ) public isValidId(_id) {\n        require(msg.sender == organisations[_id].owner, \"You are not the owner of this organisation\");\n\n        organisations[_id].ipfsHash = _hash;\n        organisations[_id].needed = _needed;\n        organisations[_id].isFullfilled = _isFullfilled;\n        emit OrganisationUpdated(_id, msg.sender);\n    }\n\n    function donate(uint256 _id) public payable isValidId(_id) isOrganisationFulfilled(_id) {\n        address owner = organisations[_id].owner;\n\n        payable(owner).transfer(msg.value);\n\n        organisations[_id].raised += msg.value;\n        donors[_id].push(Donors({\n            donor: msg.sender,\n            amount: msg.value,\n            timestamp: block.timestamp\n        }));\n\n        emit Donate(_id, msg.sender, msg.value, block.timestamp);\n\n        if(organisations[_id].raised >= organisations[_id].needed){\n            organisations[_id].isFullfilled = true;\n        }\n    }\n\n    function getDonors(uint256 _id) public view isValidId(_id) returns(Donors[] memory){\n        return donors[_id];\n    }\n\n    // Function for gas optimization\n    function unsafe_inc(uint256 x) private pure returns (uint256) {\n        unchecked { return x + 1; }\n    }\n}",
  "sourcePath": "/Users/rahulbansal/Desktop/Dority/contracts/Dority.sol",
  "compiler": {
    "name": "solc",
    "version": "0.8.14+commit.80d49f37.Emscripten.clang"
  },
  "schemaVersion": "3.4.6",
  "updatedAt": "2022-05-30T21:11:01.130Z",
  "networkType": "ethereum",
  "devdoc": {
    "kind": "dev",
    "methods": {},
    "version": 1
  },
  "userdoc": {
    "kind": "user",
    "methods": {},
    "version": 1
  }
}